{
  "_format": "hh-sol-artifact-1",
  "contractName": "SimpleAggregator",
  "sourceName": "contracts/SimpleAggregator.sol",
  "abi": [
    {
      "inputs": [
        {
          "internalType": "address",
          "name": "_registry",
          "type": "address"
        }
      ],
      "stateMutability": "nonpayable",
      "type": "constructor"
    },
    {
      "anonymous": false,
      "inputs": [
        {
          "indexed": false,
          "internalType": "address",
          "name": "cOwner",
          "type": "address"
        },
        {
          "indexed": false,
          "internalType": "bytes32",
          "name": "requestHash",
          "type": "bytes32"
        },
        {
          "indexed": false,
          "internalType": "bool",
          "name": "isPassed",
          "type": "bool"
        }
      ],
      "name": "Canonical",
      "type": "event"
    },
    {
      "anonymous": false,
      "inputs": [
        {
          "indexed": true,
          "internalType": "address",
          "name": "authority",
          "type": "address"
        }
      ],
      "name": "LogSetAuthority",
      "type": "event"
    },
    {
      "anonymous": false,
      "inputs": [
        {
          "indexed": true,
          "internalType": "address",
          "name": "owner",
          "type": "address"
        }
      ],
      "name": "LogSetOwner",
      "type": "event"
    },
    {
      "anonymous": false,
      "inputs": [
        {
          "indexed": false,
          "internalType": "address",
          "name": "cOwner",
          "type": "address"
        },
        {
          "indexed": false,
          "internalType": "bytes32",
          "name": "requestHash",
          "type": "bytes32"
        },
        {
          "indexed": false,
          "internalType": "address",
          "name": "worker",
          "type": "address"
        },
        {
          "indexed": false,
          "internalType": "bytes32",
          "name": "attester",
          "type": "bytes32"
        },
        {
          "indexed": false,
          "internalType": "bool",
          "name": "isPassed",
          "type": "bool"
        }
      ],
      "name": "Verifying",
      "type": "event"
    },
    {
      "inputs": [],
      "name": "CONTRACT_AGGREGATOR",
      "outputs": [
        {
          "internalType": "bytes32",
          "name": "",
          "type": "bytes32"
        }
      ],
      "stateMutability": "view",
      "type": "function"
    },
    {
      "inputs": [],
      "name": "CONTRACT_MAIN_KILT",
      "outputs": [
        {
          "internalType": "bytes32",
          "name": "",
          "type": "bytes32"
        }
      ],
      "stateMutability": "view",
      "type": "function"
    },
    {
      "inputs": [],
      "name": "CONTRACT_READ_GATEWAY",
      "outputs": [
        {
          "internalType": "bytes32",
          "name": "",
          "type": "bytes32"
        }
      ],
      "stateMutability": "view",
      "type": "function"
    },
    {
      "inputs": [],
      "name": "CONTRACT_REPUTATION",
      "outputs": [
        {
          "internalType": "bytes32",
          "name": "",
          "type": "bytes32"
        }
      ],
      "stateMutability": "view",
      "type": "function"
    },
    {
      "inputs": [],
      "name": "CONTRACT_REQUEST",
      "outputs": [
        {
          "internalType": "bytes32",
          "name": "",
          "type": "bytes32"
        }
      ],
      "stateMutability": "view",
      "type": "function"
    },
    {
      "inputs": [],
      "name": "CONTRACT_REWARD",
      "outputs": [
        {
          "internalType": "bytes32",
          "name": "",
          "type": "bytes32"
        }
      ],
      "stateMutability": "view",
      "type": "function"
    },
    {
      "inputs": [],
      "name": "UINT32_MIN_COMMIT",
      "outputs": [
        {
          "internalType": "bytes32",
          "name": "",
          "type": "bytes32"
        }
      ],
      "stateMutability": "view",
      "type": "function"
    },
    {
      "inputs": [],
      "name": "UINT32_THRESHOLD",
      "outputs": [
        {
          "internalType": "bytes32",
          "name": "",
          "type": "bytes32"
        }
      ],
      "stateMutability": "view",
      "type": "function"
    },
    {
      "inputs": [],
      "name": "authority",
      "outputs": [
        {
          "internalType": "contract IAuthority",
          "name": "",
          "type": "address"
        }
      ],
      "stateMutability": "view",
      "type": "function"
    },
    {
      "inputs": [
        {
          "internalType": "bytes32",
          "name": "_rootHash",
          "type": "bytes32"
        },
        {
          "internalType": "bool",
          "name": "_isPassed",
          "type": "bool"
        },
        {
          "internalType": "bytes32",
          "name": "_attester",
          "type": "bytes32"
        }
      ],
      "name": "getOutputHash",
      "outputs": [
        {
          "internalType": "bytes32",
          "name": "oHash",
          "type": "bytes32"
        }
      ],
      "stateMutability": "pure",
      "type": "function"
    },
    {
      "inputs": [
        {
          "internalType": "address",
          "name": "_who",
          "type": "address"
        },
        {
          "internalType": "bytes32",
          "name": "_requestHash",
          "type": "bytes32"
        }
      ],
      "name": "isValid",
      "outputs": [
        {
          "internalType": "bool",
          "name": "",
          "type": "bool"
        }
      ],
      "stateMutability": "view",
      "type": "function"
    },
    {
      "inputs": [],
      "name": "owner",
      "outputs": [
        {
          "internalType": "address",
          "name": "",
          "type": "address"
        }
      ],
      "stateMutability": "view",
      "type": "function"
    },
    {
      "inputs": [],
      "name": "registry",
      "outputs": [
        {
          "internalType": "contract IRegistry",
          "name": "",
          "type": "address"
        }
      ],
      "stateMutability": "view",
      "type": "function"
    },
    {
      "inputs": [
        {
          "internalType": "address",
          "name": "_authority",
          "type": "address"
        }
      ],
      "name": "setAuthority",
      "outputs": [],
      "stateMutability": "nonpayable",
      "type": "function"
    },
    {
      "inputs": [
        {
          "internalType": "address",
          "name": "owner_",
          "type": "address"
        }
      ],
      "name": "setOwner",
      "outputs": [],
      "stateMutability": "nonpayable",
      "type": "function"
    },
    {
      "inputs": [
        {
          "internalType": "address",
          "name": "_cOwner",
          "type": "address"
        },
        {
          "internalType": "bytes32",
          "name": "_requestHash",
          "type": "bytes32"
        },
        {
          "internalType": "bytes32",
          "name": "_cType",
          "type": "bytes32"
        },
        {
          "internalType": "bytes32",
          "name": "_rootHash",
          "type": "bytes32"
        },
        {
          "internalType": "bool",
          "name": "_verifyRes",
          "type": "bool"
        },
        {
          "internalType": "bytes32",
          "name": "_attester",
          "type": "bytes32"
        }
      ],
      "name": "submit",
      "outputs": [],
      "stateMutability": "nonpayable",
      "type": "function"
    }
  ],
  "bytecode": "0x608060405234801561001057600080fd5b506040516115ee3803806115ee83398101604081905261002f91610092565b600180546001600160a01b031916339081179091556040517fce241d7ca1f669fee44b6fc00b8eba2df3bb514eed0f6f668f8f89096e81ed9490600090a2600280546001600160a01b0319166001600160a01b03929092169190911790556100c0565b6000602082840312156100a3578081fd5b81516001600160a01b03811681146100b9578182fd5b9392505050565b61151f806100cf6000396000f3fe608060405234801561001057600080fd5b50600436106101005760003560e01c806387f697e811610097578063cf3008dc11610066578063cf3008dc146101c3578063e219eeff146101cb578063fb3ecf2f146101d3578063fb87ff27146101db57610100565b806387f697e8146101a35780638da5cb5b146101ab578063b9aa4ffc146101b3578063bf7e214f146101bb57610100565b806336874d31116100d357806336874d311461016b578063450c2e26146101735780637a9e5e4b1461017b5780637b1039991461018e57610100565b8063071ee7771461010557806313af40351461012357806318f6b47e146101385780633125ae7b1461014b575b600080fd5b61010d6101ee565b60405161011a91906112b7565b60405180910390f35b6101366101313660046110d9565b610212565b005b610136610146366004611143565b6102aa565b61015e610159366004611118565b6106f7565b60405161011a91906112ac565b61010d610725565b61010d610749565b6101366101893660046110d9565b61076d565b6101966107f4565b60405161011a9190611248565b61010d610803565b610196610827565b61010d610836565b61019661085a565b61010d610869565b61010d61088d565b61010d6108b1565b61010d6101e93660046111d4565b6108d5565b7f434f4e54524143545f524557415244000000000000000000000000000000000081565b610228336000356001600160e01b03191661090b565b61024d5760405162461bcd60e51b8152600401610244906113c8565b60405180910390fd5b6001805473ffffffffffffffffffffffffffffffffffffffff19166001600160a01b0383811691909117918290556040519116907fce241d7ca1f669fee44b6fc00b8eba2df3bb514eed0f6f668f8f89096e81ed9490600090a250565b6102c0336000356001600160e01b03191661090b565b6102dc5760405162461bcd60e51b8152600401610244906113c8565b60006102e98484846108d5565b905060006008816102f86109e8565b6001600160a01b03166001600160a01b03168152602001908152602001600020600088815260200190815260200160002054146103475760405162461bcd60e51b81526004016102449061136b565b6001600160a01b03871660009081526006602090815260408083208984529091529020600101541561038b5760405162461bcd60e51b81526004016102449061130e565b6001600160a01b038716600090815260036020908152604080832089845290915290205463ffffffff166104b0576002546040517f968b250f0000000000000000000000000000000000000000000000000000000081526000916001600160a01b03169063968b250f90610423907f55494e5433325f5448524553484f4c4400000000000000000000000000000000906004016112b7565b60206040518083038186803b15801561043b57600080fd5b505afa15801561044f573d6000803e3d6000fd5b505050506040513d601f19601f82011682018060405250810190610473919061120b565b6001600160a01b03891660009081526003602090815260408083208b84529091529020805463ffffffff191663ffffffff92909216919091179055505b80600860006104bd6109e8565b6001600160a01b039081168252602080830193909352604091820160009081208b82528452828120949094558a168352600482528083208984528252808320848452909152902061051661050f6109e8565b82906109ec565b6002810180546001919060009061053490849063ffffffff1661146a565b82546101009290920a63ffffffff8181021990931691831602179091556001600160a01b038a1660009081526005602090815260408083208c845290915290206105829250908490610a5016565b506002546040517fbb34534c0000000000000000000000000000000000000000000000000000000081526000916001600160a01b03169063bb34534c906105ed907f434f4e54524143545f52455055544154494f4e00000000000000000000000000906004016112b7565b60206040518083038186803b15801561060557600080fd5b505afa158015610619573d6000803e3d6000fd5b505050506040513d601f19601f8201168201806040525081019061063d91906110fc565b9050806001600160a01b031663105c63de896106576109e8565b6040518363ffffffff1660e01b81526004016106749291906112c0565b600060405180830381600087803b15801561068e57600080fd5b505af11580156106a2573d6000803e3d6000fd5b505050506001600160a01b03891660009081526003602090815260408083208b8452909152902054600283015463ffffffff9182169116106106ec576106ec888a87898588610aa7565b505050505050505050565b6001600160a01b038216600090815260066020908152604080832084845290915290205460ff165b92915050565b7f434f4e54524143545f524541445f47415445574159000000000000000000000081565b7f434f4e54524143545f4d41494e5f4b494c54000000000000000000000000000081565b610783336000356001600160e01b03191661090b565b61079f5760405162461bcd60e51b8152600401610244906113c8565b6000805473ffffffffffffffffffffffffffffffffffffffff19166001600160a01b038316908117825560405190917f1abebea81bfa2637f28358c371278fb15ede7ea8dd28d2e03b112ff6d936ada491a250565b6002546001600160a01b031681565b7f434f4e54524143545f524551554553540000000000000000000000000000000081565b6001546001600160a01b031681565b7f434f4e54524143545f41474752454741544f520000000000000000000000000081565b6000546001600160a01b031681565b7f55494e5433325f5448524553484f4c440000000000000000000000000000000081565b7f434f4e54524143545f52455055544154494f4e0000000000000000000000000081565b7f55494e5433325f4d494e5f434f4d4d495400000000000000000000000000000081565b60008383836040516020016108ec9392919061122f565b6040516020818303038152906040528051906020012090509392505050565b6001546000906001600160a01b038481169116141561092c5750600161071f565b6000546001600160a01b03166109445750600061071f565b6000546040517fb70096130000000000000000000000000000000000000000000000000000000081526001600160a01b039091169063b7009613906109919086903090879060040161125c565b60206040518083038186803b1580156109a957600080fd5b505afa1580156109bd573d6000803e3d6000fd5b505050506040513d601f19601f820116820180604052508101906109e191906111a0565b905061071f565b3390565b6109f68282610ff8565b15610a0057610a4c565b815460018082018455600084815260208082208401805473ffffffffffffffffffffffffffffffffffffffff19166001600160a01b038716908117909155825291850190915260409020555b5050565b6000610a5c8383611077565b15610a795760405162461bcd60e51b8152600401610244906112d7565b5081546001808201845560008481526020808220840185905593815293810190925260409092209190915590565b6001600160a01b0385811660009081526006602090815260408083208a84528252808320805460ff1916891515178155426001909101558683526007909152902054161580610b0f57506000838152600760205260409020546001600160a01b038681169116145b610b2b5760405162461bcd60e51b815260040161024490611425565b6000838152600760209081526040808320805473ffffffffffffffffffffffffffffffffffffffff19166001600160a01b038a169081179091558352600582528083208984529091528120905b6040517fa5b18e1f00000000000000000000000000000000000000000000000000000000815273__$f5c2669a572334ec85ca2c0ff0522cc13b$__9063a5b18e1f90610bc89085906004016112b7565b60206040518083038186803b158015610be057600080fd5b505af4158015610bf4573d6000803e3d6000fd5b505050506040513d601f19601f82011682018060405250810190610c1891906111bc565b811015610fb357604051631f90b1dd60e01b8152839073__$f5c2669a572334ec85ca2c0ff0522cc13b$__90631f90b1dd90610c5a908690869060040161145c565b60206040518083038186803b158015610c7257600080fd5b505af4158015610c86573d6000803e3d6000fd5b505050506040513d601f19601f82011682018060405250810190610caa91906111bc565b1415610cb557610fa1565b6001600160a01b03871660009081526004602081815260408084208c85529091528083209051631f90b1dd60e01b81529091839173__$f5c2669a572334ec85ca2c0ff0522cc13b$__91631f90b1dd91610d1391899189910161145c565b60206040518083038186803b158015610d2b57600080fd5b505af4158015610d3f573d6000803e3d6000fd5b505050506040513d601f19601f82011682018060405250810190610d6391906111bc565b8152602001908152602001600020600001905060005b6040517f365300c800000000000000000000000000000000000000000000000000000000815273__$50c751e7fcd45a93b7eabc99e18cba289c$__9063365300c890610dc99085906004016112b7565b60206040518083038186803b158015610de157600080fd5b505af4158015610df5573d6000803e3d6000fd5b505050506040513d601f19601f82011682018060405250810190610e1991906111bc565b811015610f9e576040517f41ef41f80000000000000000000000000000000000000000000000000000000081526001600160a01b0387169063a521d206908c9073__$50c751e7fcd45a93b7eabc99e18cba289c$__906341ef41f890610e85908890889060040161145c565b60206040518083038186803b158015610e9d57600080fd5b505af4158015610eb1573d6000803e3d6000fd5b505050506040513d601f19601f82011682018060405250810190610ed591906110fc565b6040518363ffffffff1660e01b8152600401610ef29291906112c0565b600060405180830381600087803b158015610f0c57600080fd5b505af1158015610f20573d6000803e3d6000fd5b50505050856001600160a01b031663105c63de8b610f3c6109e8565b6040518363ffffffff1660e01b8152600401610f599291906112c0565b600060405180830381600087803b158015610f7357600080fd5b505af1158015610f87573d6000803e3d6000fd5b505050508080610f9690611492565b915050610d79565b50505b80610fab81611492565b915050610b78565b507f0202bca4753584fb5188b0b2c7e5dd9ddb2873446c12289fccc06e2341061663868887604051610fe793929190611289565b60405180910390a150505050505050565b81546000906110095750600061071f565b6001600160a01b03821660009081526001840160205260409020541515806109e15750816001600160a01b03168360000160008154811061105a57634e487b7160e01b600052603260045260246000fd5b6000918252602090912001546001600160a01b031614905061071f565b81546000906110885750600061071f565b60008281526001840160205260409020541515806109e1575081836000016000815481106110c657634e487b7160e01b600052603260045260246000fd5b906000526020600020015414905061071f565b6000602082840312156110ea578081fd5b81356110f5816114c3565b9392505050565b60006020828403121561110d578081fd5b81516110f5816114c3565b6000806040838503121561112a578081fd5b8235611135816114c3565b946020939093013593505050565b60008060008060008060c0878903121561115b578182fd5b8635611166816114c3565b9550602087013594506040870135935060608701359250608087013561118b816114db565b8092505060a087013590509295509295509295565b6000602082840312156111b1578081fd5b81516110f5816114db565b6000602082840312156111cd578081fd5b5051919050565b6000806000606084860312156111e8578283fd5b8335925060208401356111fa816114db565b929592945050506040919091013590565b60006020828403121561121c578081fd5b815163ffffffff811681146110f5578182fd5b92835290151560f81b6020830152602182015260410190565b6001600160a01b0391909116815260200190565b6001600160a01b0393841681529190921660208201526001600160e01b0319909116604082015260600190565b6001600160a01b0393909316835260208301919091521515604082015260600190565b901515815260200190565b90815260200190565b9182526001600160a01b0316602082015260400190565b6020808252600e908201527f416c726561647920657869737473000000000000000000000000000000000000604082015260600190565b6020808252602b908201527f4572723a2052657175657374207461736b2068617320616c726561647920626560408201527f656e2066696e6973686564000000000000000000000000000000000000000000606082015260800190565b60208082526039908201527f4572723a206b65657065722063616e206f6e6c79207375626d6974206f6e636560408201527f20746f207468652073616d652072657175657374207461736b00000000000000606082015260800190565b60208082526031908201527f417574683a20796f752063616e206e6f74207061737320617574686f72697a6160408201527f74696f6e20766572696669636174696f6e000000000000000000000000000000606082015260800190565b6020808252601d908201527f4572723a20726f6f744861736820616c726561647920636c61696d6564000000604082015260600190565b918252602082015260400190565b600063ffffffff808316818516808303821115611489576114896114ad565b01949350505050565b60006000198214156114a6576114a66114ad565b5060010190565b634e487b7160e01b600052601160045260246000fd5b6001600160a01b03811681146114d857600080fd5b50565b80151581146114d857600080fdfea264697066735822122076dc62ff86c971b1f4de1b8572e168558565fe8ed4f322938333abcb210333ec64736f6c63430008000033",
  "linkReferences": {
    "contracts/utils/AddressesUtils.sol": {
      "AddressesUtils": [
        {
          "length": 20,
          "start": 3696
        },
        {
          "length": 20,
          "start": 3882
        }
      ]
    },
    "contracts/utils/Bytes32sUtils.sol": {
      "Bytes32sUtils": [
        {
          "length": 20,
          "start": 3183
        },
        {
          "length": 20,
          "start": 3327
        },
        {
          "length": 20,
          "start": 3514
        }
      ]
    }
  },
  "deployedLinkReferences": {
    "contracts/utils/AddressesUtils.sol": {
      "AddressesUtils": [
        {
          "length": 20,
          "start": 3489
        },
        {
          "length": 20,
          "start": 3675
        }
      ]
    },
    "contracts/utils/Bytes32sUtils.sol": {
      "Bytes32sUtils": [
        {
          "length": 20,
          "start": 2976
        },
        {
          "length": 20,
          "start": 3120
        },
        {
          "length": 20,
          "start": 3307
        }
      ]
    }
  }
}